{
  "_format": "hh-sol-artifact-1",
  "contractName": "CertifyChain",
  "sourceName": "contracts/CertifyChain.sol",
  "abi": [
    {
      "anonymous": false,
      "inputs": [
        {
          "indexed": false,
          "internalType": "string",
          "name": "certificateId",
          "type": "string"
        },
        {
          "indexed": false,
          "internalType": "string",
          "name": "studentName",
          "type": "string"
        },
        {
          "indexed": true,
          "internalType": "address",
          "name": "issuerAddress",
          "type": "address"
        },
        {
          "indexed": false,
          "internalType": "uint256",
          "name": "timestamp",
          "type": "uint256"
        }
      ],
      "name": "CertificateIssued",
      "type": "event"
    },
    {
      "anonymous": false,
      "inputs": [
        {
          "indexed": false,
          "internalType": "string",
          "name": "certificateId",
          "type": "string"
        },
        {
          "indexed": true,
          "internalType": "address",
          "name": "issuerAddress",
          "type": "address"
        },
        {
          "indexed": false,
          "internalType": "uint256",
          "name": "timestamp",
          "type": "uint256"
        }
      ],
      "name": "CertificateRevoked",
      "type": "event"
    },
    {
      "anonymous": false,
      "inputs": [
        {
          "indexed": true,
          "internalType": "address",
          "name": "institutionAddress",
          "type": "address"
        },
        {
          "indexed": false,
          "internalType": "string",
          "name": "name",
          "type": "string"
        },
        {
          "indexed": false,
          "internalType": "uint256",
          "name": "timestamp",
          "type": "uint256"
        }
      ],
      "name": "InstitutionRegistered",
      "type": "event"
    },
    {
      "inputs": [
        {
          "internalType": "string",
          "name": "",
          "type": "string"
        }
      ],
      "name": "certificates",
      "outputs": [
        {
          "internalType": "string",
          "name": "studentName",
          "type": "string"
        },
        {
          "internalType": "string",
          "name": "courseName",
          "type": "string"
        },
        {
          "internalType": "uint256",
          "name": "issueDate",
          "type": "uint256"
        },
        {
          "internalType": "address",
          "name": "issuerAddress",
          "type": "address"
        },
        {
          "internalType": "string",
          "name": "institutionName",
          "type": "string"
        },
        {
          "internalType": "bool",
          "name": "isValid",
          "type": "bool"
        }
      ],
      "stateMutability": "view",
      "type": "function"
    },
    {
      "inputs": [
        {
          "internalType": "address",
          "name": "_institutionAddress",
          "type": "address"
        },
        {
          "internalType": "uint256",
          "name": "_index",
          "type": "uint256"
        }
      ],
      "name": "getInstitutionCertificateByIndex",
      "outputs": [
        {
          "internalType": "string",
          "name": "",
          "type": "string"
        }
      ],
      "stateMutability": "view",
      "type": "function"
    },
    {
      "inputs": [
        {
          "internalType": "address",
          "name": "_institutionAddress",
          "type": "address"
        }
      ],
      "name": "getInstitutionCertificatesCount",
      "outputs": [
        {
          "internalType": "uint256",
          "name": "",
          "type": "uint256"
        }
      ],
      "stateMutability": "view",
      "type": "function"
    },
    {
      "inputs": [
        {
          "internalType": "address",
          "name": "_institutionAddress",
          "type": "address"
        }
      ],
      "name": "getInstitutionDetails",
      "outputs": [
        {
          "internalType": "string",
          "name": "name",
          "type": "string"
        },
        {
          "internalType": "string",
          "name": "email",
          "type": "string"
        },
        {
          "internalType": "bool",
          "name": "isRegistered",
          "type": "bool"
        },
        {
          "internalType": "uint256",
          "name": "registrationDate",
          "type": "uint256"
        }
      ],
      "stateMutability": "view",
      "type": "function"
    },
    {
      "inputs": [
        {
          "internalType": "address",
          "name": "",
          "type": "address"
        },
        {
          "internalType": "uint256",
          "name": "",
          "type": "uint256"
        }
      ],
      "name": "institutionCertificates",
      "outputs": [
        {
          "internalType": "string",
          "name": "",
          "type": "string"
        }
      ],
      "stateMutability": "view",
      "type": "function"
    },
    {
      "inputs": [
        {
          "internalType": "address",
          "name": "",
          "type": "address"
        }
      ],
      "name": "institutions",
      "outputs": [
        {
          "internalType": "string",
          "name": "name",
          "type": "string"
        },
        {
          "internalType": "string",
          "name": "email",
          "type": "string"
        },
        {
          "internalType": "bool",
          "name": "isRegistered",
          "type": "bool"
        },
        {
          "internalType": "uint256",
          "name": "registrationDate",
          "type": "uint256"
        }
      ],
      "stateMutability": "view",
      "type": "function"
    },
    {
      "inputs": [
        {
          "internalType": "string",
          "name": "_certificateId",
          "type": "string"
        },
        {
          "internalType": "string",
          "name": "_studentName",
          "type": "string"
        },
        {
          "internalType": "string",
          "name": "_courseName",
          "type": "string"
        }
      ],
      "name": "issueCertificate",
      "outputs": [],
      "stateMutability": "nonpayable",
      "type": "function"
    },
    {
      "inputs": [
        {
          "internalType": "string",
          "name": "_name",
          "type": "string"
        },
        {
          "internalType": "string",
          "name": "_email",
          "type": "string"
        }
      ],
      "name": "registerInstitution",
      "outputs": [],
      "stateMutability": "nonpayable",
      "type": "function"
    },
    {
      "inputs": [
        {
          "internalType": "string",
          "name": "_certificateId",
          "type": "string"
        }
      ],
      "name": "revokeCertificate",
      "outputs": [],
      "stateMutability": "nonpayable",
      "type": "function"
    },
    {
      "inputs": [
        {
          "internalType": "string",
          "name": "_certificateId",
          "type": "string"
        }
      ],
      "name": "verifyCertificate",
      "outputs": [
        {
          "internalType": "string",
          "name": "studentName",
          "type": "string"
        },
        {
          "internalType": "string",
          "name": "courseName",
          "type": "string"
        },
        {
          "internalType": "uint256",
          "name": "issueDate",
          "type": "uint256"
        },
        {
          "internalType": "address",
          "name": "issuerAddress",
          "type": "address"
        },
        {
          "internalType": "string",
          "name": "institutionName",
          "type": "string"
        },
        {
          "internalType": "bool",
          "name": "isValid",
          "type": "bool"
        }
      ],
      "stateMutability": "view",
      "type": "function"
    }
  ],
  "bytecode": "0x608060405234801561001057600080fd5b506124c1806100206000396000f3fe608060405234801561001057600080fd5b506004361061009d5760003560e01c80638f2b91ea116100665780638f2b91ea14610186578063b2d9767f146101bb578063beec1caa146101ee578063c6b5c5cc1461020a578063f7cf5818146102265761009d565b8062bb9746146100a2578063142e1542146100d25780631e8d0429146100ee5780634c608de71461011e5780638b23d87514610151575b600080fd5b6100bc60048036038101906100b791906116a7565b610256565b6040516100c99190611777565b60405180910390f35b6100ec60048036038101906100e791906118ce565b61030f565b005b61010860048036038101906101039190611917565b6105ab565b6040516101159190611953565b60405180910390f35b61013860048036038101906101339190611917565b6105f7565b6040516101489493929190611989565b60405180910390f35b61016b600480360381019061016691906118ce565b6107b7565b60405161017d969594939291906119eb565b60405180910390f35b6101a0600480360381019061019b91906118ce565b610a99565b6040516101b2969594939291906119eb565b60405180910390f35b6101d560048036038101906101d09190611917565b610cb0565b6040516101e59493929190611989565b60405180910390f35b61020860048036038101906102039190611a61565b610dfd565b005b610224600480360381019061021f9190611b08565b611267565b005b610240600480360381019061023b91906116a7565b61148d565b60405161024d9190611777565b60405180910390f35b6002602052816000526040600020818154811061027257600080fd5b9060005260206000200160009150915050805461028e90611baf565b80601f01602080910402602001604051908101604052809291908181526020018280546102ba90611baf565b80156103075780601f106102dc57610100808354040283529160200191610307565b820191906000526020600020905b8154815290600101906020018083116102ea57829003601f168201915b505050505081565b6000803373ffffffffffffffffffffffffffffffffffffffff1673ffffffffffffffffffffffffffffffffffffffff16815260200190815260200160002060020160009054906101000a900460ff1661039d576040517f08c379a000000000000000000000000000000000000000000000000000000000815260040161039490611c2c565b60405180910390fd5b60006001826040516103af9190611c88565b90815260200160405180910390206002015411610401576040517f08c379a00000000000000000000000000000000000000000000000000000000081526004016103f890611ceb565b60405180910390fd5b3373ffffffffffffffffffffffffffffffffffffffff166001826040516104289190611c88565b908152602001604051809103902060030160009054906101000a900473ffffffffffffffffffffffffffffffffffffffff1673ffffffffffffffffffffffffffffffffffffffff16146104b0576040517f08c379a00000000000000000000000000000000000000000000000000000000081526004016104a790611d7d565b60405180910390fd5b6001816040516104c09190611c88565b908152602001604051809103902060050160009054906101000a900460ff1661051e576040517f08c379a000000000000000000000000000000000000000000000000000000000815260040161051590611de9565b60405180910390fd5b60006001826040516105309190611c88565b908152602001604051809103902060050160006101000a81548160ff0219169083151502179055503373ffffffffffffffffffffffffffffffffffffffff167f47958cdd7f8a583eead77c76bf001a8af1605d4494014e49cf9cffbe4f8240cd82426040516105a0929190611e09565b60405180910390a250565b6000600260008373ffffffffffffffffffffffffffffffffffffffff1673ffffffffffffffffffffffffffffffffffffffff168152602001908152602001600020805490509050919050565b60608060008060008060008773ffffffffffffffffffffffffffffffffffffffff1673ffffffffffffffffffffffffffffffffffffffff16815260200190815260200160002060405180608001604052908160008201805461065890611baf565b80601f016020809104026020016040519081016040528092919081815260200182805461068490611baf565b80156106d15780601f106106a6576101008083540402835291602001916106d1565b820191906000526020600020905b8154815290600101906020018083116106b457829003601f168201915b505050505081526020016001820180546106ea90611baf565b80601f016020809104026020016040519081016040528092919081815260200182805461071690611baf565b80156107635780601f1061073857610100808354040283529160200191610763565b820191906000526020600020905b81548152906001019060200180831161074657829003601f168201915b505050505081526020016002820160009054906101000a900460ff16151515158152602001600382015481525050905080600001518160200151826040015183606001519450945094509450509193509193565b60608060008060606000806001886040516107d29190611c88565b90815260200160405180910390206040518060c00160405290816000820180546107fb90611baf565b80601f016020809104026020016040519081016040528092919081815260200182805461082790611baf565b80156108745780601f1061084957610100808354040283529160200191610874565b820191906000526020600020905b81548152906001019060200180831161085757829003601f168201915b5050505050815260200160018201805461088d90611baf565b80601f01602080910402602001604051908101604052809291908181526020018280546108b990611baf565b80156109065780601f106108db57610100808354040283529160200191610906565b820191906000526020600020905b8154815290600101906020018083116108e957829003601f168201915b50505050508152602001600282015481526020016003820160009054906101000a900473ffffffffffffffffffffffffffffffffffffffff1673ffffffffffffffffffffffffffffffffffffffff1673ffffffffffffffffffffffffffffffffffffffff16815260200160048201805461097f90611baf565b80601f01602080910402602001604051908101604052809291908181526020018280546109ab90611baf565b80156109f85780601f106109cd576101008083540402835291602001916109f8565b820191906000526020600020905b8154815290600101906020018083116109db57829003601f168201915b505050505081526020016005820160009054906101000a900460ff16151515158152505090506000816040015111610a65576040517f08c379a0000000000000000000000000000000000000000000000000000000008152600401610a5c90611ceb565b60405180910390fd5b806000015181602001518260400151836060015184608001518560a001519650965096509650965096505091939550919395565b600181805160208101820180518482526020830160208501208183528095505050505050600091509050806000018054610ad290611baf565b80601f0160208091040260200160405190810160405280929190818152602001828054610afe90611baf565b8015610b4b5780601f10610b2057610100808354040283529160200191610b4b565b820191906000526020600020905b815481529060010190602001808311610b2e57829003601f168201915b505050505090806001018054610b6090611baf565b80601f0160208091040260200160405190810160405280929190818152602001828054610b8c90611baf565b8015610bd95780601f10610bae57610100808354040283529160200191610bd9565b820191906000526020600020905b815481529060010190602001808311610bbc57829003601f168201915b5050505050908060020154908060030160009054906101000a900473ffffffffffffffffffffffffffffffffffffffff1690806004018054610c1a90611baf565b80601f0160208091040260200160405190810160405280929190818152602001828054610c4690611baf565b8015610c935780601f10610c6857610100808354040283529160200191610c93565b820191906000526020600020905b815481529060010190602001808311610c7657829003601f168201915b5050505050908060050160009054906101000a900460ff16905086565b6000602052806000526040600020600091509050806000018054610cd390611baf565b80601f0160208091040260200160405190810160405280929190818152602001828054610cff90611baf565b8015610d4c5780601f10610d2157610100808354040283529160200191610d4c565b820191906000526020600020905b815481529060010190602001808311610d2f57829003601f168201915b505050505090806001018054610d6190611baf565b80601f0160208091040260200160405190810160405280929190818152602001828054610d8d90611baf565b8015610dda5780601f10610daf57610100808354040283529160200191610dda565b820191906000526020600020905b815481529060010190602001808311610dbd57829003601f168201915b5050505050908060020160009054906101000a900460ff16908060030154905084565b6000803373ffffffffffffffffffffffffffffffffffffffff1673ffffffffffffffffffffffffffffffffffffffff16815260200190815260200160002060020160009054906101000a900460ff16610e8b576040517f08c379a0000000000000000000000000000000000000000000000000000000008152600401610e8290611c2c565b60405180910390fd5b6000835111610ecf576040517f08c379a0000000000000000000000000000000000000000000000000000000008152600401610ec690611e85565b60405180910390fd5b6000825111610f13576040517f08c379a0000000000000000000000000000000000000000000000000000000008152600401610f0a90611ef1565b60405180910390fd5b6000815111610f57576040517f08c379a0000000000000000000000000000000000000000000000000000000008152600401610f4e90611f5d565b60405180910390fd5b6000600184604051610f699190611c88565b90815260200160405180910390206002015414610fbb576040517f08c379a0000000000000000000000000000000000000000000000000000000008152600401610fb290611fc9565b60405180910390fd5b6040518060c001604052808381526020018281526020014281526020013373ffffffffffffffffffffffffffffffffffffffff1681526020016000803373ffffffffffffffffffffffffffffffffffffffff1673ffffffffffffffffffffffffffffffffffffffff168152602001908152602001600020600001805461104090611baf565b80601f016020809104026020016040519081016040528092919081815260200182805461106c90611baf565b80156110b95780601f1061108e576101008083540402835291602001916110b9565b820191906000526020600020905b81548152906001019060200180831161109c57829003601f168201915b50505050508152602001600115158152506001846040516110da9190611c88565b908152602001604051809103902060008201518160000190816110fd9190612195565b5060208201518160010190816111139190612195565b506040820151816002015560608201518160030160006101000a81548173ffffffffffffffffffffffffffffffffffffffff021916908373ffffffffffffffffffffffffffffffffffffffff160217905550608082015181600401908161117a9190612195565b5060a08201518160050160006101000a81548160ff021916908315150217905550905050600260003373ffffffffffffffffffffffffffffffffffffffff1673ffffffffffffffffffffffffffffffffffffffff1681526020019081526020016000208390806001815401808255809150506001900390600052602060002001600090919091909150908161120f9190612195565b503373ffffffffffffffffffffffffffffffffffffffff167ffa7468fb48fb83622c2209222cf44e88523933fddb73d3b07ecf89400639b3ba84844260405161125a93929190612267565b60405180910390a2505050565b6000803373ffffffffffffffffffffffffffffffffffffffff1673ffffffffffffffffffffffffffffffffffffffff16815260200190815260200160002060020160009054906101000a900460ff16156112f6576040517f08c379a00000000000000000000000000000000000000000000000000000000081526004016112ed906122f8565b60405180910390fd5b600082511161133a576040517f08c379a000000000000000000000000000000000000000000000000000000000815260040161133190612364565b60405180910390fd5b600081511161137e576040517f08c379a0000000000000000000000000000000000000000000000000000000008152600401611375906123d0565b60405180910390fd5b6040518060800160405280838152602001828152602001600115158152602001428152506000803373ffffffffffffffffffffffffffffffffffffffff1673ffffffffffffffffffffffffffffffffffffffff16815260200190815260200160002060008201518160000190816113f59190612195565b50602082015181600101908161140b9190612195565b5060408201518160020160006101000a81548160ff021916908315150217905550606082015181600301559050503373ffffffffffffffffffffffffffffffffffffffff167f7c0f5cc09780e7fbbb9700dc48f49cdadcdf5d8c8a674b8a8725af30071dc82f8342604051611481929190611e09565b60405180910390a25050565b6060600260008473ffffffffffffffffffffffffffffffffffffffff1673ffffffffffffffffffffffffffffffffffffffff168152602001908152602001600020805490508210611513576040517f08c379a000000000000000000000000000000000000000000000000000000000815260040161150a9061243c565b60405180910390fd5b600260008473ffffffffffffffffffffffffffffffffffffffff1673ffffffffffffffffffffffffffffffffffffffff16815260200190815260200160002082815481106115645761156361245c565b5b90600052602060002001805461157990611baf565b80601f01602080910402602001604051908101604052809291908181526020018280546115a590611baf565b80156115f25780601f106115c7576101008083540402835291602001916115f2565b820191906000526020600020905b8154815290600101906020018083116115d557829003601f168201915b5050505050905092915050565b6000604051905090565b600080fd5b600080fd5b600073ffffffffffffffffffffffffffffffffffffffff82169050919050565b600061163e82611613565b9050919050565b61164e81611633565b811461165957600080fd5b50565b60008135905061166b81611645565b92915050565b6000819050919050565b61168481611671565b811461168f57600080fd5b50565b6000813590506116a18161167b565b92915050565b600080604083850312156116be576116bd611609565b5b60006116cc8582860161165c565b92505060206116dd85828601611692565b9150509250929050565b600081519050919050565b600082825260208201905092915050565b60005b83811015611721578082015181840152602081019050611706565b60008484015250505050565b6000601f19601f8301169050919050565b6000611749826116e7565b61175381856116f2565b9350611763818560208601611703565b61176c8161172d565b840191505092915050565b60006020820190508181036000830152611791818461173e565b905092915050565b600080fd5b600080fd5b7f4e487b7100000000000000000000000000000000000000000000000000000000600052604160045260246000fd5b6117db8261172d565b810181811067ffffffffffffffff821117156117fa576117f96117a3565b5b80604052505050565b600061180d6115ff565b905061181982826117d2565b919050565b600067ffffffffffffffff821115611839576118386117a3565b5b6118428261172d565b9050602081019050919050565b82818337600083830152505050565b600061187161186c8461181e565b611803565b90508281526020810184848401111561188d5761188c61179e565b5b61189884828561184f565b509392505050565b600082601f8301126118b5576118b4611799565b5b81356118c584826020860161185e565b91505092915050565b6000602082840312156118e4576118e3611609565b5b600082013567ffffffffffffffff8111156119025761190161160e565b5b61190e848285016118a0565b91505092915050565b60006020828403121561192d5761192c611609565b5b600061193b8482850161165c565b91505092915050565b61194d81611671565b82525050565b60006020820190506119686000830184611944565b92915050565b60008115159050919050565b6119838161196e565b82525050565b600060808201905081810360008301526119a3818761173e565b905081810360208301526119b7818661173e565b90506119c6604083018561197a565b6119d36060830184611944565b95945050505050565b6119e581611633565b82525050565b600060c0820190508181036000830152611a05818961173e565b90508181036020830152611a19818861173e565b9050611a286040830187611944565b611a3560608301866119dc565b8181036080830152611a47818561173e565b9050611a5660a083018461197a565b979650505050505050565b600080600060608486031215611a7a57611a79611609565b5b600084013567ffffffffffffffff811115611a9857611a9761160e565b5b611aa4868287016118a0565b935050602084013567ffffffffffffffff811115611ac557611ac461160e565b5b611ad1868287016118a0565b925050604084013567ffffffffffffffff811115611af257611af161160e565b5b611afe868287016118a0565b9150509250925092565b60008060408385031215611b1f57611b1e611609565b5b600083013567ffffffffffffffff811115611b3d57611b3c61160e565b5b611b49858286016118a0565b925050602083013567ffffffffffffffff811115611b6a57611b6961160e565b5b611b76858286016118a0565b9150509250929050565b7f4e487b7100000000000000000000000000000000000000000000000000000000600052602260045260246000fd5b60006002820490506001821680611bc757607f821691505b602082108103611bda57611bd9611b80565b5b50919050565b7f496e737469747574696f6e206e6f742072656769737465726564000000000000600082015250565b6000611c16601a836116f2565b9150611c2182611be0565b602082019050919050565b60006020820190508181036000830152611c4581611c09565b9050919050565b600081905092915050565b6000611c62826116e7565b611c6c8185611c4c565b9350611c7c818560208601611703565b80840191505092915050565b6000611c948284611c57565b915081905092915050565b7f436572746966696361746520646f6573206e6f74206578697374000000000000600082015250565b6000611cd5601a836116f2565b9150611ce082611c9f565b602082019050919050565b60006020820190508181036000830152611d0481611cc8565b9050919050565b7f4e6f7420617574686f72697a656420746f207265766f6b65207468697320636560008201527f7274696669636174650000000000000000000000000000000000000000000000602082015250565b6000611d676029836116f2565b9150611d7282611d0b565b604082019050919050565b60006020820190508181036000830152611d9681611d5a565b9050919050565b7f436572746966696361746520616c7265616479207265766f6b65640000000000600082015250565b6000611dd3601b836116f2565b9150611dde82611d9d565b602082019050919050565b60006020820190508181036000830152611e0281611dc6565b9050919050565b60006040820190508181036000830152611e23818561173e565b9050611e326020830184611944565b9392505050565b7f43657274696669636174652049442063616e6e6f7420626520656d7074790000600082015250565b6000611e6f601e836116f2565b9150611e7a82611e39565b602082019050919050565b60006020820190508181036000830152611e9e81611e62565b9050919050565b7f53747564656e74206e616d652063616e6e6f7420626520656d70747900000000600082015250565b6000611edb601c836116f2565b9150611ee682611ea5565b602082019050919050565b60006020820190508181036000830152611f0a81611ece565b9050919050565b7f436f75727365206e616d652063616e6e6f7420626520656d7074790000000000600082015250565b6000611f47601b836116f2565b9150611f5282611f11565b602082019050919050565b60006020820190508181036000830152611f7681611f3a565b9050919050565b7f436572746966696361746520494420616c726561647920657869737473000000600082015250565b6000611fb3601d836116f2565b9150611fbe82611f7d565b602082019050919050565b60006020820190508181036000830152611fe281611fa6565b9050919050565b60008190508160005260206000209050919050565b60006020601f8301049050919050565b600082821b905092915050565b60006008830261204b7fffffffffffffffffffffffffffffffffffffffffffffffffffffffffffffffff8261200e565b612055868361200e565b95508019841693508086168417925050509392505050565b6000819050919050565b600061209261208d61208884611671565b61206d565b611671565b9050919050565b6000819050919050565b6120ac83612077565b6120c06120b882612099565b84845461201b565b825550505050565b600090565b6120d56120c8565b6120e08184846120a3565b505050565b5b81811015612104576120f96000826120cd565b6001810190506120e6565b5050565b601f8211156121495761211a81611fe9565b61212384611ffe565b81016020851015612132578190505b61214661213e85611ffe565b8301826120e5565b50505b505050565b600082821c905092915050565b600061216c6000198460080261214e565b1980831691505092915050565b6000612185838361215b565b9150826002028217905092915050565b61219e826116e7565b67ffffffffffffffff8111156121b7576121b66117a3565b5b6121c18254611baf565b6121cc828285612108565b600060209050601f8311600181146121ff57600084156121ed578287015190505b6121f78582612179565b86555061225f565b601f19841661220d86611fe9565b60005b8281101561223557848901518255600182019150602085019450602081019050612210565b86831015612252578489015161224e601f89168261215b565b8355505b6001600288020188555050505b505050505050565b60006060820190508181036000830152612281818661173e565b90508181036020830152612295818561173e565b90506122a46040830184611944565b949350505050565b7f496e737469747574696f6e20616c726561647920726567697374657265640000600082015250565b60006122e2601e836116f2565b91506122ed826122ac565b602082019050919050565b60006020820190508181036000830152612311816122d5565b9050919050565b7f4e616d652063616e6e6f7420626520656d707479000000000000000000000000600082015250565b600061234e6014836116f2565b915061235982612318565b602082019050919050565b6000602082019050818103600083015261237d81612341565b9050919050565b7f456d61696c2063616e6e6f7420626520656d7074790000000000000000000000600082015250565b60006123ba6015836116f2565b91506123c582612384565b602082019050919050565b600060208201905081810360008301526123e9816123ad565b9050919050565b7f496e646578206f7574206f6620626f756e647300000000000000000000000000600082015250565b60006124266013836116f2565b9150612431826123f0565b602082019050919050565b6000602082019050818103600083015261245581612419565b9050919050565b7f4e487b7100000000000000000000000000000000000000000000000000000000600052603260045260246000fdfea2646970667358221220c6f6bc1be58ea969c22ce3b1fd9c50bc49086d5edb86010041aac3530cdc79fa64736f6c63430008130033",
  "linkReferences": {},
  "deployedLinkReferences": {}
}